{
  "contractName": "CryptoDoggies",
  "abi": [
    {
      "constant": true,
      "inputs": [],
      "name": "ceoAddress",
      "outputs": [
        {
          "name": "",
          "type": "address"
        }
      ],
      "payable": false,
      "stateMutability": "view",
      "type": "function"
    },
    {
      "constant": false,
      "inputs": [
        {
          "name": "_newCEO",
          "type": "address"
        }
      ],
      "name": "setCEO",
      "outputs": [],
      "payable": false,
      "stateMutability": "nonpayable",
      "type": "function"
    },
    {
      "constant": false,
      "inputs": [
        {
          "name": "_newCOO",
          "type": "address"
        }
      ],
      "name": "setCOO",
      "outputs": [],
      "payable": false,
      "stateMutability": "nonpayable",
      "type": "function"
    },
    {
      "constant": false,
      "inputs": [],
      "name": "unpause",
      "outputs": [],
      "payable": false,
      "stateMutability": "nonpayable",
      "type": "function"
    },
    {
      "constant": true,
      "inputs": [],
      "name": "paused",
      "outputs": [
        {
          "name": "",
          "type": "bool"
        }
      ],
      "payable": false,
      "stateMutability": "view",
      "type": "function"
    },
    {
      "constant": false,
      "inputs": [],
      "name": "pause",
      "outputs": [],
      "payable": false,
      "stateMutability": "nonpayable",
      "type": "function"
    },
    {
      "constant": true,
      "inputs": [],
      "name": "cooAddress",
      "outputs": [
        {
          "name": "",
          "type": "address"
        }
      ],
      "payable": false,
      "stateMutability": "view",
      "type": "function"
    },
    {
      "anonymous": false,
      "inputs": [
        {
          "indexed": false,
          "name": "tokenId",
          "type": "uint256"
        },
        {
          "indexed": false,
          "name": "name",
          "type": "string"
        },
        {
          "indexed": false,
          "name": "dna",
          "type": "bytes5"
        },
        {
          "indexed": false,
          "name": "price",
          "type": "uint256"
        },
        {
          "indexed": false,
          "name": "owner",
          "type": "address"
        }
      ],
      "name": "TokenCreated",
      "type": "event"
    },
    {
      "anonymous": false,
      "inputs": [
        {
          "indexed": true,
          "name": "tokenId",
          "type": "uint256"
        },
        {
          "indexed": false,
          "name": "name",
          "type": "string"
        },
        {
          "indexed": false,
          "name": "dna",
          "type": "bytes5"
        },
        {
          "indexed": false,
          "name": "sellingPrice",
          "type": "uint256"
        },
        {
          "indexed": false,
          "name": "newPrice",
          "type": "uint256"
        },
        {
          "indexed": true,
          "name": "oldOwner",
          "type": "address"
        },
        {
          "indexed": true,
          "name": "newOwner",
          "type": "address"
        }
      ],
      "name": "TokenSold",
      "type": "event"
    },
    {
      "anonymous": false,
      "inputs": [
        {
          "indexed": true,
          "name": "_from",
          "type": "address"
        },
        {
          "indexed": true,
          "name": "_to",
          "type": "address"
        },
        {
          "indexed": false,
          "name": "_tokenId",
          "type": "uint256"
        }
      ],
      "name": "Transfer",
      "type": "event"
    },
    {
      "anonymous": false,
      "inputs": [
        {
          "indexed": true,
          "name": "_owner",
          "type": "address"
        },
        {
          "indexed": true,
          "name": "_approved",
          "type": "address"
        },
        {
          "indexed": false,
          "name": "_tokenId",
          "type": "uint256"
        }
      ],
      "name": "Approval",
      "type": "event"
    },
    {
      "constant": false,
      "inputs": [
        {
          "name": "_name",
          "type": "string"
        }
      ],
      "name": "createToken",
      "outputs": [],
      "payable": false,
      "stateMutability": "nonpayable",
      "type": "function"
    },
    {
      "constant": false,
      "inputs": [
        {
          "name": "_name",
          "type": "string"
        },
        {
          "name": "_owner",
          "type": "address"
        },
        {
          "name": "_price",
          "type": "uint256"
        }
      ],
      "name": "createToken",
      "outputs": [],
      "payable": false,
      "stateMutability": "nonpayable",
      "type": "function"
    },
    {
      "constant": true,
      "inputs": [
        {
          "name": "_tokenId",
          "type": "uint256"
        }
      ],
      "name": "getToken",
      "outputs": [
        {
          "name": "_tokenName",
          "type": "string"
        },
        {
          "name": "_dna",
          "type": "bytes5"
        },
        {
          "name": "_price",
          "type": "uint256"
        },
        {
          "name": "_nextPrice",
          "type": "uint256"
        },
        {
          "name": "_owner",
          "type": "address"
        }
      ],
      "payable": false,
      "stateMutability": "view",
      "type": "function"
    },
    {
      "constant": true,
      "inputs": [],
      "name": "getAllTokens",
      "outputs": [
        {
          "name": "",
          "type": "uint256[]"
        },
        {
          "name": "",
          "type": "uint256[]"
        },
        {
          "name": "",
          "type": "address[]"
        }
      ],
      "payable": false,
      "stateMutability": "view",
      "type": "function"
    },
    {
      "constant": true,
      "inputs": [
        {
          "name": "_owner",
          "type": "address"
        }
      ],
      "name": "tokensOf",
      "outputs": [
        {
          "name": "",
          "type": "uint256[]"
        }
      ],
      "payable": false,
      "stateMutability": "view",
      "type": "function"
    },
    {
      "constant": false,
      "inputs": [
        {
          "name": "_to",
          "type": "address"
        },
        {
          "name": "_amount",
          "type": "uint256"
        }
      ],
      "name": "withdrawBalance",
      "outputs": [],
      "payable": false,
      "stateMutability": "nonpayable",
      "type": "function"
    },
    {
      "constant": false,
      "inputs": [
        {
          "name": "_tokenId",
          "type": "uint256"
        }
      ],
      "name": "purchase",
      "outputs": [],
      "payable": true,
      "stateMutability": "payable",
      "type": "function"
    },
    {
      "constant": true,
      "inputs": [
        {
          "name": "_tokenId",
          "type": "uint256"
        }
      ],
      "name": "priceOf",
      "outputs": [
        {
          "name": "_price",
          "type": "uint256"
        }
      ],
      "payable": false,
      "stateMutability": "view",
      "type": "function"
    },
    {
      "constant": true,
      "inputs": [
        {
          "name": "_tokenId",
          "type": "uint256"
        }
      ],
      "name": "nextPriceOf",
      "outputs": [
        {
          "name": "_nextPrice",
          "type": "uint256"
        }
      ],
      "payable": false,
      "stateMutability": "view",
      "type": "function"
    },
    {
      "constant": false,
      "inputs": [],
      "name": "enableERC721",
      "outputs": [],
      "payable": false,
      "stateMutability": "nonpayable",
      "type": "function"
    },
    {
      "constant": true,
      "inputs": [],
      "name": "totalSupply",
      "outputs": [
        {
          "name": "_totalSupply",
          "type": "uint256"
        }
      ],
      "payable": false,
      "stateMutability": "view",
      "type": "function"
    },
    {
      "constant": true,
      "inputs": [
        {
          "name": "_owner",
          "type": "address"
        }
      ],
      "name": "balanceOf",
      "outputs": [
        {
          "name": "_balance",
          "type": "uint256"
        }
      ],
      "payable": false,
      "stateMutability": "view",
      "type": "function"
    },
    {
      "constant": true,
      "inputs": [
        {
          "name": "_tokenId",
          "type": "uint256"
        }
      ],
      "name": "ownerOf",
      "outputs": [
        {
          "name": "_owner",
          "type": "address"
        }
      ],
      "payable": false,
      "stateMutability": "view",
      "type": "function"
    },
    {
      "constant": false,
      "inputs": [
        {
          "name": "_to",
          "type": "address"
        },
        {
          "name": "_tokenId",
          "type": "uint256"
        }
      ],
      "name": "approve",
      "outputs": [],
      "payable": false,
      "stateMutability": "nonpayable",
      "type": "function"
    },
    {
      "constant": false,
      "inputs": [
        {
          "name": "_from",
          "type": "address"
        },
        {
          "name": "_to",
          "type": "address"
        },
        {
          "name": "_tokenId",
          "type": "uint256"
        }
      ],
      "name": "transferFrom",
      "outputs": [],
      "payable": false,
      "stateMutability": "nonpayable",
      "type": "function"
    },
    {
      "constant": false,
      "inputs": [
        {
          "name": "_to",
          "type": "address"
        },
        {
          "name": "_tokenId",
          "type": "uint256"
        }
      ],
      "name": "transfer",
      "outputs": [],
      "payable": false,
      "stateMutability": "nonpayable",
      "type": "function"
    },
    {
      "constant": true,
      "inputs": [],
      "name": "implementsERC721",
      "outputs": [
        {
          "name": "",
          "type": "bool"
        }
      ],
      "payable": false,
      "stateMutability": "view",
      "type": "function"
    },
    {
      "constant": false,
      "inputs": [
        {
          "name": "_tokenId",
          "type": "uint256"
        }
      ],
      "name": "takeOwnership",
      "outputs": [],
      "payable": false,
      "stateMutability": "nonpayable",
      "type": "function"
    },
    {
      "constant": true,
      "inputs": [],
      "name": "name",
      "outputs": [
        {
          "name": "_name",
          "type": "string"
        }
      ],
      "payable": false,
      "stateMutability": "view",
      "type": "function"
    },
    {
      "constant": true,
      "inputs": [],
      "name": "symbol",
      "outputs": [
        {
          "name": "_symbol",
          "type": "string"
        }
      ],
      "payable": false,
      "stateMutability": "view",
      "type": "function"
    }
  ],
  "bytecode": "0x60806040526000600160146101000a81548160ff021916908315150217905550662386f26fc100006007556000600860006101000a81548160ff02191690831515021790555066470de4df8200006009556706f05b59d3b20000600a55671bc16d674ec80000600b55674563918244f40000600c55336000806101000a81548173ffffffffffffffffffffffffffffffffffffffff021916908373ffffffffffffffffffffffffffffffffffffffff16021790555033600160006101000a81548173ffffffffffffffffffffffffffffffffffffffff021916908373ffffffffffffffffffffffffffffffffffffffff1602179055506126b1806101046000396000f30060806040526004361061015f576000357c0100000000000000000000000000000000000000000000000000000000900463ffffffff16806306fdde0314610164578063095ea7b3146101f45780630a0f8168146102415780630cf20cc9146102985780631051db34146102e557806318160ddd1461031457806323b872dd1461033f57806327d7874c146103ac5780632a5c792a146103ef5780632ba73c15146104eb5780633f4ba83a1461052e57806345576f94146105455780635a3f2672146105ae5780635ba9e48e146106465780635c975abb146106875780636352211e146106b657806370a082311461072357806371dc761e1461077a57806373b4df05146107915780638456cb591461082457806395d89b411461083b578063a9059cbb146108cb578063b047fb5014610918578063b2e6ceeb1461096f578063b9186d7d1461099c578063e4b50cb8146109dd578063efef39a114610b07575b600080fd5b34801561017057600080fd5b50610179610b27565b6040518080602001828103825283818151815260200191508051906020019080838360005b838110156101b957808201518184015260208101905061019e565b50505050905090810190601f1680156101e65780820380516001836020036101000a031916815260200191505b509250505060405180910390f35b34801561020057600080fd5b5061023f600480360381019080803573ffffffffffffffffffffffffffffffffffffffff16906020019092919080359060200190929190505050610b64565b005b34801561024d57600080fd5b50610256610c6b565b604051808273ffffffffffffffffffffffffffffffffffffffff1673ffffffffffffffffffffffffffffffffffffffff16815260200191505060405180910390f35b3480156102a457600080fd5b506102e3600480360381019080803573ffffffffffffffffffffffffffffffffffffffff16906020019092919080359060200190929190505050610c90565b005b3480156102f157600080fd5b506102fa610e23565b604051808215151515815260200191505060405180910390f35b34801561032057600080fd5b50610329610e56565b6040518082815260200191505060405180910390f35b34801561034b57600080fd5b506103aa600480360381019080803573ffffffffffffffffffffffffffffffffffffffff169060200190929190803573ffffffffffffffffffffffffffffffffffffffff16906020019092919080359060200190929190505050610e63565b005b3480156103b857600080fd5b506103ed600480360381019080803573ffffffffffffffffffffffffffffffffffffffff169060200190929190505050610f10565b005b3480156103fb57600080fd5b50610404610fea565b60405180806020018060200180602001848103845287818151815260200191508051906020019060200280838360005b8381101561044f578082015181840152602081019050610434565b50505050905001848103835286818151815260200191508051906020019060200280838360005b83811015610491578082015181840152602081019050610476565b50505050905001848103825285818151815260200191508051906020019060200280838360005b838110156104d35780820151818401526020810190506104b8565b50505050905001965050505050505060405180910390f35b3480156104f757600080fd5b5061052c600480360381019080803573ffffffffffffffffffffffffffffffffffffffff169060200190929190505050611198565b005b34801561053a57600080fd5b50610543611273565b005b34801561055157600080fd5b506105ac600480360381019080803590602001908201803590602001908080601f0160208091040260200160405190810160405280939291908181526020018383808284378201915050505050509192919290505050611306565b005b3480156105ba57600080fd5b506105ef600480360381019080803573ffffffffffffffffffffffffffffffffffffffff1690602001909291905050506113d7565b6040518080602001828103825283818151815260200191508051906020019060200280838360005b83811015610632578082015181840152602081019050610617565b505050509050019250505060405180910390f35b34801561065257600080fd5b5061067160048036038101908080359060200190929190505050611523565b6040518082815260200191505060405180910390f35b34801561069357600080fd5b5061069c611641565b604051808215151515815260200191505060405180910390f35b3480156106c257600080fd5b506106e160048036038101908080359060200190929190505050611654565b604051808273ffffffffffffffffffffffffffffffffffffffff1673ffffffffffffffffffffffffffffffffffffffff16815260200191505060405180910390f35b34801561072f57600080fd5b50610764600480360381019080803573ffffffffffffffffffffffffffffffffffffffff169060200190929190505050611691565b6040518082815260200191505060405180910390f35b34801561078657600080fd5b5061078f6116da565b005b34801561079d57600080fd5b50610822600480360381019080803590602001908201803590602001908080601f0160208091040260200160405190810160405280939291908181526020018383808284378201915050505050509192919290803573ffffffffffffffffffffffffffffffffffffffff16906020019092919080359060200190929190505050611752565b005b34801561083057600080fd5b50610839611870565b005b34801561084757600080fd5b50610850611903565b6040518080602001828103825283818151815260200191508051906020019080838360005b83811015610890578082015181840152602081019050610875565b50505050905090810190601f1680156108bd5780820380516001836020036101000a031916815260200191505b509250505060405180910390f35b3480156108d757600080fd5b50610916600480360381019080803573ffffffffffffffffffffffffffffffffffffffff16906020019092919080359060200190929190505050611940565b005b34801561092457600080fd5b5061092d6119d7565b604051808273ffffffffffffffffffffffffffffffffffffffff1673ffffffffffffffffffffffffffffffffffffffff16815260200191505060405180910390f35b34801561097b57600080fd5b5061099a600480360381019080803590602001909291905050506119fd565b005b3480156109a857600080fd5b506109c760048036038101908080359060200190929190505050611a8a565b6040518082815260200191505060405180910390f35b3480156109e957600080fd5b50610a0860048036038101908080359060200190929190505050611aa7565b6040518080602001867affffffffffffffffffffffffffffffffffffffffffffffffffffff19167affffffffffffffffffffffffffffffffffffffffffffffffffffff191681526020018581526020018481526020018373ffffffffffffffffffffffffffffffffffffffff1673ffffffffffffffffffffffffffffffffffffffff168152602001828103825287818151815260200191508051906020019080838360005b83811015610ac8578082015181840152602081019050610aad565b50505050905090810190601f168015610af55780820380516001836020036101000a031916815260200191505b50965050505050505060405180910390f35b610b2560048036038101908080359060200190929190505050611c15565b005b60606040805190810160405280600d81526020017f43727970746f446f676769657300000000000000000000000000000000000000815250905090565b600160149054906101000a900460ff16151515610b8057600080fd5b600860009054906101000a900460ff161515610b9b57600080fd5b610ba53382612034565b1515610bb057600080fd5b816005600083815260200190815260200160002060006101000a81548173ffffffffffffffffffffffffffffffffffffffff021916908373ffffffffffffffffffffffffffffffffffffffff1602179055508173ffffffffffffffffffffffffffffffffffffffff163373ffffffffffffffffffffffffffffffffffffffff167f8c5be1e5ebec7d5bd14f71427d1e84f3dd0314c0f7b2291e5b200ac8c7c3b925836040518082815260200191505060405180910390a35050565b6000809054906101000a900473ffffffffffffffffffffffffffffffffffffffff1681565b6000809054906101000a900473ffffffffffffffffffffffffffffffffffffffff1673ffffffffffffffffffffffffffffffffffffffff163373ffffffffffffffffffffffffffffffffffffffff16141515610ceb57600080fd5b3073ffffffffffffffffffffffffffffffffffffffff16318111151515610d1157600080fd5b6000811415610d35573073ffffffffffffffffffffffffffffffffffffffff163190505b600073ffffffffffffffffffffffffffffffffffffffff168273ffffffffffffffffffffffffffffffffffffffff161415610dd7576000809054906101000a900473ffffffffffffffffffffffffffffffffffffffff1673ffffffffffffffffffffffffffffffffffffffff166108fc829081150290604051600060405180830381858888f19350505050158015610dd1573d6000803e3d6000fd5b50610e1f565b8173ffffffffffffffffffffffffffffffffffffffff166108fc829081150290604051600060405180830381858888f19350505050158015610e1d573d6000803e3d6000fd5b505b5050565b6000600160149054906101000a900460ff16151515610e4157600080fd5b600860009054906101000a900460ff16905090565b6000600680549050905090565b600160149054906101000a900460ff16151515610e7f57600080fd5b600860009054906101000a900460ff161515610e9a57600080fd5b600073ffffffffffffffffffffffffffffffffffffffff168273ffffffffffffffffffffffffffffffffffffffff1614151515610ed657600080fd5b610ee08382612034565b1515610eeb57600080fd5b610ef533826120a0565b1515610f0057600080fd5b610f0b83838361210c565b505050565b6000809054906101000a900473ffffffffffffffffffffffffffffffffffffffff1673ffffffffffffffffffffffffffffffffffffffff163373ffffffffffffffffffffffffffffffffffffffff16141515610f6b57600080fd5b600073ffffffffffffffffffffffffffffffffffffffff168173ffffffffffffffffffffffffffffffffffffffff1614151515610fa757600080fd5b806000806101000a81548173ffffffffffffffffffffffffffffffffffffffff021916908373ffffffffffffffffffffffffffffffffffffffff16021790555050565b6060806060600060608060606000611000610e56565b9450846040519080825280602002602001820160405280156110315781602001602082028038833980820191505090505b509350846040519080825280602002602001820160405280156110635781602001602082028038833980820191505090505b509250846040519080825280602002602001820160405280156110955781602001602082028038833980820191505090505b509150600090505b8481101561118557600360008281526020019081526020016000205484828151811015156110c757fe5b90602001906020020181815250506110de81611523565b83828151811015156110ec57fe5b90602001906020020181815250506002600082815260200190815260200160002060009054906101000a900473ffffffffffffffffffffffffffffffffffffffff16828281518110151561113c57fe5b9060200190602002019073ffffffffffffffffffffffffffffffffffffffff16908173ffffffffffffffffffffffffffffffffffffffff1681525050808060010191505061109d565b8383839750975097505050505050909192565b6000809054906101000a900473ffffffffffffffffffffffffffffffffffffffff1673ffffffffffffffffffffffffffffffffffffffff163373ffffffffffffffffffffffffffffffffffffffff161415156111f357600080fd5b600073ffffffffffffffffffffffffffffffffffffffff168173ffffffffffffffffffffffffffffffffffffffff161415151561122f57600080fd5b80600160006101000a81548173ffffffffffffffffffffffffffffffffffffffff021916908373ffffffffffffffffffffffffffffffffffffffff16021790555050565b6000809054906101000a900473ffffffffffffffffffffffffffffffffffffffff1673ffffffffffffffffffffffffffffffffffffffff163373ffffffffffffffffffffffffffffffffffffffff161415156112ce57600080fd5b600160149054906101000a900460ff1615156112e957600080fd5b6000600160146101000a81548160ff021916908315150217905550565b60008060009054906101000a900473ffffffffffffffffffffffffffffffffffffffff1673ffffffffffffffffffffffffffffffffffffffff163373ffffffffffffffffffffffffffffffffffffffff1614806113b05750600160009054906101000a900473ffffffffffffffffffffffffffffffffffffffff1673ffffffffffffffffffffffffffffffffffffffff163373ffffffffffffffffffffffffffffffffffffffff16145b15156113bb57600080fd5b6113c36122d4565b90506113d3828230600754612304565b5050565b60606000606060008060006113eb87611691565b9450600085141561142e5760006040519080825280602002602001820160405280156114265781602001602082028038833980820191505090505b509550611519565b8460405190808252806020026020018201604052801561145d5781602001602082028038833980820191505090505b509350611468610e56565b925060009150600090505b82811015611515578673ffffffffffffffffffffffffffffffffffffffff166002600083815260200190815260200160002060009054906101000a900473ffffffffffffffffffffffffffffffffffffffff1673ffffffffffffffffffffffffffffffffffffffff161415611508578084838151811015156114f157fe5b906020019060200201818152505081806001019250505b8080600101915050611473565b8395505b5050505050919050565b60008061152f83611a8a565b905060095481101561156957611562605f61155460c88461252690919063ffffffff16565b61256190919063ffffffff16565b915061163b565b600a548110156115a15761159a606061158c60878461252690919063ffffffff16565b61256190919063ffffffff16565b915061163b565b600b548110156115d9576115d260616115c4607d8461252690919063ffffffff16565b61256190919063ffffffff16565b915061163b565b600c548110156116115761160a60616115fc60758461252690919063ffffffff16565b61256190919063ffffffff16565b915061163b565b611638606261162a60738461252690919063ffffffff16565b61256190919063ffffffff16565b91505b50919050565b600160149054906101000a900460ff1681565b60006002600083815260200190815260200160002060009054906101000a900473ffffffffffffffffffffffffffffffffffffffff169050919050565b6000600460008373ffffffffffffffffffffffffffffffffffffffff1673ffffffffffffffffffffffffffffffffffffffff168152602001908152602001600020549050919050565b6000809054906101000a900473ffffffffffffffffffffffffffffffffffffffff1673ffffffffffffffffffffffffffffffffffffffff163373ffffffffffffffffffffffffffffffffffffffff1614151561173557600080fd5b6001600860006101000a81548160ff021916908315150217905550565b60008060009054906101000a900473ffffffffffffffffffffffffffffffffffffffff1673ffffffffffffffffffffffffffffffffffffffff163373ffffffffffffffffffffffffffffffffffffffff1614806117fc5750600160009054906101000a900473ffffffffffffffffffffffffffffffffffffffff1673ffffffffffffffffffffffffffffffffffffffff163373ffffffffffffffffffffffffffffffffffffffff16145b151561180757600080fd5b600073ffffffffffffffffffffffffffffffffffffffff168373ffffffffffffffffffffffffffffffffffffffff161415151561184357600080fd5b600754821015151561185457600080fd5b61185c6122d4565b905061186a84828585612304565b50505050565b6000809054906101000a900473ffffffffffffffffffffffffffffffffffffffff1673ffffffffffffffffffffffffffffffffffffffff163373ffffffffffffffffffffffffffffffffffffffff161415156118cb57600080fd5b600160149054906101000a900460ff161515156118e757600080fd5b60018060146101000a81548160ff021916908315150217905550565b60606040805190810160405280600381526020017f4344540000000000000000000000000000000000000000000000000000000000815250905090565b600160149054906101000a900460ff1615151561195c57600080fd5b600860009054906101000a900460ff16151561197757600080fd5b600073ffffffffffffffffffffffffffffffffffffffff168273ffffffffffffffffffffffffffffffffffffffff16141515156119b357600080fd5b6119bd3382612034565b15156119c857600080fd5b6119d333838361210c565b5050565b600160009054906101000a900473ffffffffffffffffffffffffffffffffffffffff1681565b600160149054906101000a900460ff16151515611a1957600080fd5b600860009054906101000a900460ff161515611a3457600080fd5b611a3e33826120a0565b1515611a4957600080fd5b611a876002600083815260200190815260200160002060009054906101000a900473ffffffffffffffffffffffffffffffffffffffff16338361210c565b50565b600060036000838152602001908152602001600020549050919050565b6060600080600080600686815481101515611abe57fe5b90600052602060002090600202016000018054600181600116156101000203166002900480601f016020809104026020016040519081016040528092919081815260200182805460018160011615610100020316600290048015611b635780601f10611b3857610100808354040283529160200191611b63565b820191906000526020600020905b815481529060010190602001808311611b4657829003601f168201915b50505050509450600686815481101515611b7957fe5b906000526020600020906002020160010160009054906101000a90047b0100000000000000000000000000000000000000000000000000000002935060036000878152602001908152602001600020549250611bd486611523565b91506002600087815260200190815260200160002060009054906101000a900473ffffffffffffffffffffffffffffffffffffffff16905091939590929450565b6000806000806000600160149054906101000a900460ff16151515611c3957600080fd5b611c4286611654565b9450339350611c5086611a8a565b9250600073ffffffffffffffffffffffffffffffffffffffff168573ffffffffffffffffffffffffffffffffffffffff1614151515611c8e57600080fd5b600073ffffffffffffffffffffffffffffffffffffffff168473ffffffffffffffffffffffffffffffffffffffff1614151515611cca57600080fd5b8373ffffffffffffffffffffffffffffffffffffffff168573ffffffffffffffffffffffffffffffffffffffff1614151515611d0557600080fd5b611d0e8461257c565b151515611d1a57600080fd5b600083111515611d2957600080fd5b823410151515611d3857600080fd5b611d4385858861210c565b611d4c86611523565b60036000888152602001908152602001600020819055508373ffffffffffffffffffffffffffffffffffffffff168573ffffffffffffffffffffffffffffffffffffffff16877f47c2495ae9a226645e2cfa7b81ab70c2d82f35b0c69a72358812cca2f0f0bcbc60068a815481101515611dc257fe5b906000526020600020906002020160000160068b815481101515611de257fe5b906000526020600020906002020160010160009054906101000a90047b010000000000000000000000000000000000000000000000000000000288611e268d611a8a565b6040518080602001857affffffffffffffffffffffffffffffffffffffffffffffffffffff19167affffffffffffffffffffffffffffffffffffffffffffffffffffff19168152602001848152602001838152602001828103825286818154600181600116156101000203166002900481526020019150805460018160011615610100020316600290048015611efd5780601f10611ed257610100808354040283529160200191611efd565b820191906000526020600020905b815481529060010190602001808311611ee057829003601f168201915b50509550505050505060405180910390a4611f21833461258f90919063ffffffff16565b9150611f4a6064611f3c60068661252690919063ffffffff16565b61256190919063ffffffff16565b90503073ffffffffffffffffffffffffffffffffffffffff168573ffffffffffffffffffffffffffffffffffffffff16141515611fdb578473ffffffffffffffffffffffffffffffffffffffff166108fc611fae838661258f90919063ffffffff16565b9081150290604051600060405180830381858888f19350505050158015611fd9573d6000803e3d6000fd5b505b600082111561202c578373ffffffffffffffffffffffffffffffffffffffff166108fc839081150290604051600060405180830381858888f1935050505015801561202a573d6000803e3d6000fd5b505b505050505050565b60008273ffffffffffffffffffffffffffffffffffffffff166002600084815260200190815260200160002060009054906101000a900473ffffffffffffffffffffffffffffffffffffffff1673ffffffffffffffffffffffffffffffffffffffff1614905092915050565b60008273ffffffffffffffffffffffffffffffffffffffff166005600084815260200190815260200160002060009054906101000a900473ffffffffffffffffffffffffffffffffffffffff1673ffffffffffffffffffffffffffffffffffffffff1614905092915050565b600460008373ffffffffffffffffffffffffffffffffffffffff1673ffffffffffffffffffffffffffffffffffffffff16815260200190815260200160002060008154809291906001019190505550816002600083815260200190815260200160002060006101000a81548173ffffffffffffffffffffffffffffffffffffffff021916908373ffffffffffffffffffffffffffffffffffffffff160217905550600073ffffffffffffffffffffffffffffffffffffffff168373ffffffffffffffffffffffffffffffffffffffff1614151561226a57600460008473ffffffffffffffffffffffffffffffffffffffff1673ffffffffffffffffffffffffffffffffffffffff16815260200190815260200160002060008154809291906001900391905055506005600082815260200190815260200160002060006101000a81549073ffffffffffffffffffffffffffffffffffffffff02191690555b8173ffffffffffffffffffffffffffffffffffffffff168373ffffffffffffffffffffffffffffffffffffffff167fddf252ad1be2c89b69c2b068fc378daa952ba7f163c4a11628f55a4df523b3ef836040518082815260200191505060405180910390a3505050565b6000806000806001430392508240915060d863ffffffff6001028316600019169060020a02905080935050505090565b61230c6125a8565b60006040805190810160405280878152602001867affffffffffffffffffffffffffffffffffffffffffffffffffffff19168152509150600160068390806001815401808255809150509060018203906000526020600020906002020160009091929091909150600082015181600001908051906020019061238f9291906125e0565b5060208201518160010160006101000a81548164ffffffffff02191690837b010000000000000000000000000000000000000000000000000000009004021790555050500390508260036000838152602001908152602001600020819055507fe2541836f6f02475fc0b01a06c1e80d7e5098215c6015348851ceabef9d05e6881878786886040518086815260200180602001857affffffffffffffffffffffffffffffffffffffffffffffffffffff19167affffffffffffffffffffffffffffffffffffffffffffffffffffff191681526020018481526020018373ffffffffffffffffffffffffffffffffffffffff1673ffffffffffffffffffffffffffffffffffffffff168152602001828103825286818151815260200191508051906020019080838360005b838110156124d45780820151818401526020810190506124b9565b50505050905090810190601f1680156125015780820380516001836020036101000a031916815260200191505b50965050505050505060405180910390a161251e6000858361210c565b505050505050565b600080600084141561253b576000915061255a565b828402905082848281151561254c57fe5b0414151561255657fe5b8091505b5092915050565b600080828481151561256f57fe5b0490508091505092915050565b600080823b905060008111915050919050565b600082821115151561259d57fe5b818303905092915050565b60408051908101604052806060815260200160007affffffffffffffffffffffffffffffffffffffffffffffffffffff191681525090565b828054600181600116156101000203166002900490600052602060002090601f016020900481019282601f1061262157805160ff191683800117855561264f565b8280016001018555821561264f579182015b8281111561264e578251825591602001919060010190612633565b5b50905061265c9190612660565b5090565b61268291905b8082111561267e576000816000905550600101612666565b5090565b905600a165627a7a723058208fa5baae838513995bc591dbd1f2e74349f2b3edf4b9e36323e2fd75521dee660029",
  "source": "pragma solidity ^0.4.18;\n\ncontract AccessControl {\n    /// @dev The addresses of the accounts (or contracts) that can execute actions within each roles\n    address public ceoAddress;\n    address public cooAddress;\n\n    /// @dev Keeps track whether the contract is paused. When that is true, most actions are blocked\n    bool public paused = false;\n\n    /// @dev The AccessControl constructor sets the original C roles of the contract to the sender account\n    function AccessControl() public {\n        ceoAddress = msg.sender;\n        cooAddress = msg.sender;\n    }\n\n    /// @dev Access modifier for CEO-only functionality\n    modifier onlyCEO() {\n        require(msg.sender == ceoAddress);\n        _;\n    }\n\n    /// @dev Access modifier for COO-only functionality\n    modifier onlyCOO() {\n        require(msg.sender == cooAddress);\n        _;\n    }\n\n    /// @dev Access modifier for any CLevel functionality\n    modifier onlyCLevel() {\n        require(msg.sender == ceoAddress || msg.sender == cooAddress);\n        _;\n    }\n\n    /// @dev Assigns a new address to act as the CEO. Only available to the current CEO\n    /// @param _newCEO The address of the new CEO\n    function setCEO(address _newCEO) public onlyCEO {\n        require(_newCEO != address(0));\n        ceoAddress = _newCEO;\n    }\n\n    /// @dev Assigns a new address to act as the COO. Only available to the current CEO\n    /// @param _newCOO The address of the new COO\n    function setCOO(address _newCOO) public onlyCEO {\n        require(_newCOO != address(0));\n        cooAddress = _newCOO;\n    }\n\n    /// @dev Modifier to allow actions only when the contract IS NOT paused\n    modifier whenNotPaused() {\n        require(!paused);\n        _;\n    }\n\n    /// @dev Modifier to allow actions only when the contract IS paused\n    modifier whenPaused {\n        require(paused);\n        _;\n    }\n\n    /// @dev Pause the smart contract. Only can be called by the CEO\n    function pause() public onlyCEO whenNotPaused {\n        paused = true;\n    }\n\n    /// @dev Unpauses the smart contract. Only can be called by the CEO\n    function unpause() public onlyCEO whenPaused {\n        paused = false;\n    }\n}\n\n\n/**\n * Interface for required functionality in the ERC721 standard\n * for non-fungible tokens.\n *\n * Author: Nadav Hollander (nadav at dharma.io)\n * https://github.com/dharmaprotocol/NonFungibleToken/blob/master/contracts/ERC721.sol\n */\ncontract ERC721 {\n    // Events\n    event Transfer(address indexed _from, address indexed _to, uint256 _tokenId);\n    event Approval(address indexed _owner, address indexed _approved, uint256 _tokenId);\n\n    /// For querying totalSupply of token.\n    function totalSupply() public view returns (uint256 _totalSupply);\n\n    /// For querying balance of a particular account.\n    /// @param _owner The address for balance query.\n    /// @dev Required for ERC-721 compliance.\n    function balanceOf(address _owner) public view returns (uint256 _balance);\n\n    /// For querying owner of token.\n    /// @param _tokenId The tokenID for owner inquiry.\n    /// @dev Required for ERC-721 compliance.\n    function ownerOf(uint256 _tokenId) public view returns (address _owner);\n\n    /// @notice Grant another address the right to transfer token via takeOwnership() and transferFrom()\n    /// @param _to The address to be granted transfer approval. Pass address(0) to\n    ///  clear all approvals.\n    /// @param _tokenId The ID of the Token that can be transferred if this call succeeds.\n    /// @dev Required for ERC-721 compliance.\n    function approve(address _to, uint256 _tokenId) public;\n\n    // NOT IMPLEMENTED\n    // function getApproved(uint256 _tokenId) public view returns (address _approved);\n\n    /// Third-party initiates transfer of token from address _from to address _to.\n    /// @param _from The address for the token to be transferred from.\n    /// @param _to The address for the token to be transferred to.\n    /// @param _tokenId The ID of the Token that can be transferred if this call succeeds.\n    /// @dev Required for ERC-721 compliance.\n    function transferFrom(address _from, address _to, uint256 _tokenId) public;\n\n    /// Owner initates the transfer of the token to another account.\n    /// @param _to The address of the recipient, can be a user or contract.\n    /// @param _tokenId The ID of the token to transfer.\n    /// @dev Required for ERC-721 compliance.\n    function transfer(address _to, uint256 _tokenId) public;\n\n    ///\n    function implementsERC721() public view returns (bool _implementsERC721);\n\n    // EXTRA\n    /// @notice Allow pre-approved user to take ownership of a token.\n    /// @param _tokenId The ID of the token that can be transferred if this call succeeds.\n    /// @dev Required for ERC-721 compliance.\n    function takeOwnership(uint256 _tokenId) public;\n}\n\n\ncontract DetailedERC721 is ERC721 {\n    function name() public view returns (string _name);\n    function symbol() public view returns (string _symbol);\n}\n\n\ncontract CryptoDoggies is AccessControl, DetailedERC721 {\n    using SafeMath for uint256;\n\n    event TokenCreated(uint256 tokenId, string name, bytes5 dna, uint256 price, address owner);\n    event TokenSold(\n        uint256 indexed tokenId,\n        string name,\n        bytes5 dna,\n        uint256 sellingPrice,\n        uint256 newPrice,\n        address indexed oldOwner,\n        address indexed newOwner\n        );\n\n    mapping (uint256 => address) private tokenIdToOwner;\n    mapping (uint256 => uint256) private tokenIdToPrice;\n    mapping (address => uint256) private ownershipTokenCount;\n    mapping (uint256 => address) private tokenIdToApproved;\n\n    struct Doggy {\n        string name;\n        bytes5 dna;\n    }\n\n    Doggy[] private doggies;\n\n    uint256 private startingPrice = 0.01 ether;\n    bool private erc721Enabled = false;\n\n    modifier onlyERC721() {\n        require(erc721Enabled);\n        _;\n    }\n\n    function createToken(string _name, address _owner, uint256 _price) public onlyCLevel {\n        require(_owner != address(0));\n        require(_price >= startingPrice);\n\n        bytes5 _dna = _generateRandomDna();\n        _createToken(_name, _dna, _owner, _price);\n    }\n\n    function createToken(string _name) public onlyCLevel {\n        bytes5 _dna = _generateRandomDna();\n        _createToken(_name, _dna, address(this), startingPrice);\n    }\n\n    function _generateRandomDna() private view returns (bytes5) {\n        uint256 lastBlockNumber = block.number - 1;\n        bytes32 hashVal = bytes32(block.blockhash(lastBlockNumber));\n        bytes5 dna = bytes5((hashVal & 0xffffffff) << 216);\n        return dna;\n    }\n\n    function _createToken(string _name, bytes5 _dna, address _owner, uint256 _price) private {\n        Doggy memory _doggy = Doggy({\n            name: _name,\n            dna: _dna\n        });\n        uint256 newTokenId = doggies.push(_doggy) - 1;\n        tokenIdToPrice[newTokenId] = _price;\n\n        TokenCreated(newTokenId, _name, _dna, _price, _owner);\n\n        _transfer(address(0), _owner, newTokenId);\n    }\n\n    function getToken(uint256 _tokenId) public view returns (\n        string _tokenName,\n        bytes5 _dna,\n        uint256 _price,\n        uint256 _nextPrice,\n        address _owner\n    ) {\n        _tokenName = doggies[_tokenId].name;\n        _dna = doggies[_tokenId].dna;\n        _price = tokenIdToPrice[_tokenId];\n        _nextPrice = nextPriceOf(_tokenId);\n        _owner = tokenIdToOwner[_tokenId];\n    }\n\n    function getAllTokens() public view returns (\n        uint256[],\n        uint256[],\n        address[]\n    ) {\n        uint256 total = totalSupply();\n        uint256[] memory prices = new uint256[](total);\n        uint256[] memory nextPrices = new uint256[](total);\n        address[] memory owners = new address[](total);\n\n        for (uint256 i = 0; i < total; i++) {\n            prices[i] = tokenIdToPrice[i];\n            nextPrices[i] = nextPriceOf(i);\n            owners[i] = tokenIdToOwner[i];\n        }\n\n        return (prices, nextPrices, owners);\n    }\n\n    function tokensOf(address _owner) public view returns(uint256[]) {\n        uint256 tokenCount = balanceOf(_owner);\n        if (tokenCount == 0) {\n            return new uint256[](0);\n        } else {\n            uint256[] memory result = new uint256[](tokenCount);\n            uint256 total = totalSupply();\n            uint256 resultIndex = 0;\n\n            for (uint256 i = 0; i < total; i++) {\n                if (tokenIdToOwner[i] == _owner) {\n                    result[resultIndex] = i;\n                    resultIndex++;\n                }\n            }\n            return result;\n        }\n    }\n\n    function withdrawBalance(address _to, uint256 _amount) public onlyCEO {\n        require(_amount <= this.balance);\n\n        if (_amount == 0) {\n            _amount = this.balance;\n        }\n\n        if (_to == address(0)) {\n            ceoAddress.transfer(_amount);\n        } else {\n            _to.transfer(_amount);\n        }\n    }\n\n    function purchase(uint256 _tokenId) public payable whenNotPaused {\n        address oldOwner = ownerOf(_tokenId);\n        address newOwner = msg.sender;\n        uint256 sellingPrice = priceOf(_tokenId);\n\n        require(oldOwner != address(0));\n        require(newOwner != address(0));\n        require(oldOwner != newOwner);\n        require(!_isContract(newOwner));\n        require(sellingPrice > 0);\n        require(msg.value >= sellingPrice);\n\n        _transfer(oldOwner, newOwner, _tokenId);\n        tokenIdToPrice[_tokenId] = nextPriceOf(_tokenId);\n        TokenSold(\n            _tokenId,\n            doggies[_tokenId].name,\n            doggies[_tokenId].dna,\n            sellingPrice,\n            priceOf(_tokenId),\n            oldOwner,\n            newOwner\n        );\n\n        uint256 excess = msg.value.sub(sellingPrice);\n        uint256 contractCut = sellingPrice.mul(6).div(100); // 6% cut\n\n        if (oldOwner != address(this)) {\n            oldOwner.transfer(sellingPrice.sub(contractCut));\n        }\n\n        if (excess > 0) {\n            newOwner.transfer(excess);\n        }\n    }\n\n    function priceOf(uint256 _tokenId) public view returns (uint256 _price) {\n        return tokenIdToPrice[_tokenId];\n    }\n\n    uint256 private increaseLimit1 = 0.02 ether;\n    uint256 private increaseLimit2 = 0.5 ether;\n    uint256 private increaseLimit3 = 2.0 ether;\n    uint256 private increaseLimit4 = 5.0 ether;\n\n    function nextPriceOf(uint256 _tokenId) public view returns (uint256 _nextPrice) {\n        uint256 _price = priceOf(_tokenId);\n        if (_price < increaseLimit1) {\n            return _price.mul(200).div(95);\n        } else if (_price < increaseLimit2) {\n            return _price.mul(135).div(96);\n        } else if (_price < increaseLimit3) {\n            return _price.mul(125).div(97);\n        } else if (_price < increaseLimit4) {\n            return _price.mul(117).div(97);\n        } else {\n            return _price.mul(115).div(98);\n        }\n    }\n\n    function enableERC721() public onlyCEO {\n        erc721Enabled = true;\n    }\n\n    function totalSupply() public view returns (uint256 _totalSupply) {\n        _totalSupply = doggies.length;\n    }\n\n    function balanceOf(address _owner) public view returns (uint256 _balance) {\n        _balance = ownershipTokenCount[_owner];\n    }\n\n    function ownerOf(uint256 _tokenId) public view returns (address _owner) {\n        _owner = tokenIdToOwner[_tokenId];\n    }\n\n    function approve(address _to, uint256 _tokenId) public whenNotPaused onlyERC721 {\n        require(_owns(msg.sender, _tokenId));\n        tokenIdToApproved[_tokenId] = _to;\n        Approval(msg.sender, _to, _tokenId);\n    }\n\n    function transferFrom(address _from, address _to, uint256 _tokenId) public whenNotPaused onlyERC721 {\n        require(_to != address(0));\n        require(_owns(_from, _tokenId));\n        require(_approved(msg.sender, _tokenId));\n\n        _transfer(_from, _to, _tokenId);\n    }\n\n    function transfer(address _to, uint256 _tokenId) public whenNotPaused onlyERC721 {\n        require(_to != address(0));\n        require(_owns(msg.sender, _tokenId));\n\n        _transfer(msg.sender, _to, _tokenId);\n    }\n\n    function implementsERC721() public view whenNotPaused returns (bool) {\n        return erc721Enabled;\n    }\n\n    function takeOwnership(uint256 _tokenId) public whenNotPaused onlyERC721 {\n        require(_approved(msg.sender, _tokenId));\n        _transfer(tokenIdToOwner[_tokenId], msg.sender, _tokenId);\n    }\n\n    function name() public view returns (string _name) {\n        _name = \"CryptoDoggies\";\n    }\n\n    function symbol() public view returns (string _symbol) {\n        _symbol = \"CDT\";\n    }\n\n    function _owns(address _claimant, uint256 _tokenId) private view returns (bool) {\n        return tokenIdToOwner[_tokenId] == _claimant;\n    }\n\n    function _approved(address _to, uint256 _tokenId) private view returns (bool) {\n        return tokenIdToApproved[_tokenId] == _to;\n    }\n\n    function _transfer(address _from, address _to, uint256 _tokenId) private {\n        ownershipTokenCount[_to]++;\n        tokenIdToOwner[_tokenId] = _to;\n\n        if (_from != address(0)) {\n            ownershipTokenCount[_from]--;\n            delete tokenIdToApproved[_tokenId];\n        }\n\n        Transfer(_from, _to, _tokenId);\n    }\n\n    function _isContract(address addr) private view returns (bool) {\n        uint256 size;\n        assembly { size := extcodesize(addr) }\n        return size > 0;\n    }\n}\n\n\nlibrary SafeMath {\n\n    /**\n    * @dev Multiplies two numbers, throws on overflow.\n    */\n    function mul(uint256 a, uint256 b) internal pure returns (uint256) {\n        if (a == 0) {\n            return 0;\n        }\n        uint256 c = a * b;\n        assert(c / a == b);\n        return c;\n    }\n\n    /**\n    * @dev Integer division of two numbers, truncating the quotient.\n    */\n    function div(uint256 a, uint256 b) internal pure returns (uint256) {\n        // assert(b > 0); // Solidity automatically throws when dividing by 0\n        uint256 c = a / b;\n        // assert(a == b * c + a % b); // There is no case in which this doesn't hold\n        return c;\n    }\n\n    /**\n    * @dev Substracts two numbers, throws on overflow (i.e. if subtrahend is greater than minuend).\n    */\n    function sub(uint256 a, uint256 b) internal pure returns (uint256) {\n        assert(b <= a);\n        return a - b;\n    }\n\n    /**\n    * @dev Adds two numbers, throws on overflow.\n    */\n    function add(uint256 a, uint256 b) internal pure returns (uint256) {\n        uint256 c = a + b;\n        assert(c >= a);\n        return c;\n    }\n}\n",
  "sourcePath": "/home/codblocks/Public/blockchain/ethereum-doggies/contracts/CryptoDoggies.sol",
  "compiler": {
    "name": "solc",
    "version": "0.4.25+commit.59dbf8f1.Emscripten.clang"
  },
  "schemaVersion": "2.0.2",
  "updatedAt": "2019-04-16T16:41:40.782Z"
}